{
    "_format": "hh-sol-artifact-1",
    "contractName": "WavePortal",
    "sourceName": "contracts/WavePortal.sol",
    "abi": [
        {
            "inputs": [],
            "stateMutability": "payable",
            "type": "constructor"
        },
        {
            "anonymous": false,
            "inputs": [
                {
                    "indexed": true,
                    "internalType": "address",
                    "name": "from",
                    "type": "address"
                },
                {
                    "indexed": false,
                    "internalType": "uint256",
                    "name": "timestamp",
                    "type": "uint256"
                },
                {
                    "indexed": false,
                    "internalType": "string",
                    "name": "message",
                    "type": "string"
                }
            ],
            "name": "NewWave",
            "type": "event"
        },
        {
            "inputs": [],
            "name": "getAllWaves",
            "outputs": [
                {
                    "components": [
                        {
                            "internalType": "address",
                            "name": "waver",
                            "type": "address"
                        },
                        {
                            "internalType": "string",
                            "name": "message",
                            "type": "string"
                        },
                        {
                            "internalType": "uint256",
                            "name": "timestamp",
                            "type": "uint256"
                        }
                    ],
                    "internalType": "struct WavePortal.Wave[]",
                    "name": "",
                    "type": "tuple[]"
                }
            ],
            "stateMutability": "view",
            "type": "function"
        },
        {
            "inputs": [],
            "name": "getTotalRewards",
            "outputs": [
                {
                    "internalType": "uint256",
                    "name": "",
                    "type": "uint256"
                }
            ],
            "stateMutability": "view",
            "type": "function"
        },
        {
            "inputs": [],
            "name": "getTotalWaves",
            "outputs": [
                {
                    "internalType": "uint256",
                    "name": "",
                    "type": "uint256"
                }
            ],
            "stateMutability": "view",
            "type": "function"
        },
        {
            "inputs": [
                {
                    "internalType": "address",
                    "name": "",
                    "type": "address"
                }
            ],
            "name": "lastWavedAt",
            "outputs": [
                {
                    "internalType": "uint256",
                    "name": "",
                    "type": "uint256"
                }
            ],
            "stateMutability": "view",
            "type": "function"
        },
        {
            "inputs": [
                {
                    "internalType": "address",
                    "name": "",
                    "type": "address"
                }
            ],
            "name": "total_rewards",
            "outputs": [
                {
                    "internalType": "uint256",
                    "name": "",
                    "type": "uint256"
                }
            ],
            "stateMutability": "view",
            "type": "function"
        },
        {
            "inputs": [
                {
                    "internalType": "string",
                    "name": "_message",
                    "type": "string"
                }
            ],
            "name": "wave",
            "outputs": [],
            "stateMutability": "nonpayable",
            "type": "function"
        }
    ],
    "bytecode": "0x60806040526200004f6040518060400160405280601981526020017f57652068617665206265656e20636f6e737472756374656421000000000000008152506200007760201b620007a21760201c565b606444426200005f9190620001c4565b6200006b919062000261565b60018190555062000308565b62000117816040516024016200008e919062000184565b6040516020818303038152906040527f41304fac000000000000000000000000000000000000000000000000000000007bffffffffffffffffffffffffffffffffffffffffffffffffffffffff19166020820180517bffffffffffffffffffffffffffffffffffffffffffffffffffffffff83818316178352505050506200011a60201b60201c565b50565b60008151905060006a636f6e736f6c652e6c6f679050602083016000808483855afa5050505050565b60006200015082620001a8565b6200015c8185620001b3565b93506200016e8185602086016200022b565b6200017981620002f7565b840191505092915050565b60006020820190508181036000830152620001a0818462000143565b905092915050565b600081519050919050565b600082825260208201905092915050565b6000620001d18262000221565b9150620001de8362000221565b9250827fffffffffffffffffffffffffffffffffffffffffffffffffffffffffffffffff0382111562000216576200021562000299565b5b828201905092915050565b6000819050919050565b60005b838110156200024b5780820151818401526020810190506200022e565b838111156200025b576000848401525b50505050565b60006200026e8262000221565b91506200027b8362000221565b9250826200028e576200028d620002c8565b5b828206905092915050565b7f4e487b7100000000000000000000000000000000000000000000000000000000600052601160045260246000fd5b7f4e487b7100000000000000000000000000000000000000000000000000000000600052601260045260246000fd5b6000601f19601f8301169050919050565b61134380620003186000396000f3fe608060405234801561001057600080fd5b50600436106100625760003560e01c8063449d46c0146100675780639a2cdc0814610083578063a42a4663146100a1578063bd43a908146100d1578063d3e01baf146100ef578063e627f2db1461011f575b600080fd5b610081600480360381019061007c9190610b8a565b61013d565b005b61008b6105d1565b6040516100989190610f0e565b60405180910390f35b6100bb60048036038101906100b69190610b61565b6105da565b6040516100c89190610f0e565b60405180910390f35b6100d96105f2565b6040516100e69190610dd0565b60405180910390f35b61010960048036038101906101049190610b61565b610743565b6040516101169190610f0e565b60405180910390f35b61012761075b565b6040516101349190610f0e565b60405180910390f35b6102086040518060400160405280601f81526020017f626c6f636b2d74203a2025642020757365723a2564282b3135203d202564290081525042600460003373ffffffffffffffffffffffffffffffffffffffff1673ffffffffffffffffffffffffffffffffffffffff16815260200190815260200160002054600a600460003373ffffffffffffffffffffffffffffffffffffffff1673ffffffffffffffffffffffffffffffffffffffff168152602001908152602001600020546102039190611020565b61083b565b42600460003373ffffffffffffffffffffffffffffffffffffffff1673ffffffffffffffffffffffffffffffffffffffff16815260200190815260200160002081905550600160008082825461025e9190611020565b925050819055506102a46040518060400160405280600d81526020017f2573206861732077617665642100000000000000000000000000000000000000815250336108dd565b600260405180606001604052803373ffffffffffffffffffffffffffffffffffffffff16815260200183815260200142815250908060018154018082558091505060019003906000526020600020906003020160009091909190915060008201518160000160006101000a81548173ffffffffffffffffffffffffffffffffffffffff021916908373ffffffffffffffffffffffffffffffffffffffff1602179055506020820151816001019080519060200190610363929190610a41565b50604082015181600201555050606460015442446103819190611020565b61038b9190611020565b6103959190611157565b60018190555060326001541161053b576103e46040518060400160405280600f81526020017f257320776f6e3d3d3d3d3d3d3d3d210000000000000000000000000000000000815250336108dd565b60006509184e72a000905047811115610432576040517f08c379a000000000000000000000000000000000000000000000000000000000815260040161042990610eee565b60405180910390fd5b60003373ffffffffffffffffffffffffffffffffffffffff168260405161045890610dbb565b60006040518083038185875af1925050503d8060008114610495576040519150601f19603f3d011682016040523d82523d6000602084013e61049a565b606091505b50509050806104de576040517f08c379a00000000000000000000000000000000000000000000000000000000081526004016104d590610ece565b60405180910390fd5b81600360003373ffffffffffffffffffffffffffffffffffffffff1673ffffffffffffffffffffffffffffffffffffffff168152602001908152602001600020600082825461052d9190611020565b92505081905550505061057e565b61057d6040518060400160405280601181526020017f5b25735d2564206c6f7365202d2d2d2d2100000000000000000000000000000081525033600154610979565b5b3373ffffffffffffffffffffffffffffffffffffffff167f5f7e16dc676677766a70e9c5628aa6c54ddb8b6e5188e2ae1e1f17f1ffbea71642836040516105c6929190610f29565b60405180910390a250565b60008054905090565b60046020528060005260406000206000915090505481565b60606002805480602002602001604051908101604052809291908181526020016000905b8282101561073a57838290600052602060002090600302016040518060600160405290816000820160009054906101000a900473ffffffffffffffffffffffffffffffffffffffff1673ffffffffffffffffffffffffffffffffffffffff1673ffffffffffffffffffffffffffffffffffffffff16815260200160018201805461069f906110f4565b80601f01602080910402602001604051908101604052809291908181526020018280546106cb906110f4565b80156107185780601f106106ed57610100808354040283529160200191610718565b820191906000526020600020905b8154815290600101906020018083116106fb57829003601f168201915b5050505050815260200160028201548152505081526020019060010190610616565b50505050905090565b60036020528060005260406000206000915090505481565b6000600360003373ffffffffffffffffffffffffffffffffffffffff1673ffffffffffffffffffffffffffffffffffffffff16815260200190815260200160002054905090565b610838816040516024016107b69190610df2565b6040516020818303038152906040527f41304fac000000000000000000000000000000000000000000000000000000007bffffffffffffffffffffffffffffffffffffffffffffffffffffffff19166020820180517bffffffffffffffffffffffffffffffffffffffffffffffffffffffff8381831617835250505050610a18565b50565b6108d7848484846040516024016108559493929190610e82565b6040516020818303038152906040527f08ee5666000000000000000000000000000000000000000000000000000000007bffffffffffffffffffffffffffffffffffffffffffffffffffffffff19166020820180517bffffffffffffffffffffffffffffffffffffffffffffffffffffffff8381831617835250505050610a18565b50505050565b61097582826040516024016108f3929190610e14565b6040516020818303038152906040527f319af333000000000000000000000000000000000000000000000000000000007bffffffffffffffffffffffffffffffffffffffffffffffffffffffff19166020820180517bffffffffffffffffffffffffffffffffffffffffffffffffffffffff8381831617835250505050610a18565b5050565b610a1383838360405160240161099193929190610e44565b6040516020818303038152906040527f07c81217000000000000000000000000000000000000000000000000000000007bffffffffffffffffffffffffffffffffffffffffffffffffffffffff19166020820180517bffffffffffffffffffffffffffffffffffffffffffffffffffffffff8381831617835250505050610a18565b505050565b60008151905060006a636f6e736f6c652e6c6f679050602083016000808483855afa5050505050565b828054610a4d906110f4565b90600052602060002090601f016020900481019282610a6f5760008555610ab6565b82601f10610a8857805160ff1916838001178555610ab6565b82800160010185558215610ab6579182015b82811115610ab5578251825591602001919060010190610a9a565b5b509050610ac39190610ac7565b5090565b5b80821115610ae0576000816000905550600101610ac8565b5090565b6000610af7610af284610f7e565b610f59565b905082815260208101848484011115610b0f57600080fd5b610b1a8482856110b2565b509392505050565b600081359050610b31816112f6565b92915050565b600082601f830112610b4857600080fd5b8135610b58848260208601610ae4565b91505092915050565b600060208284031215610b7357600080fd5b6000610b8184828501610b22565b91505092915050565b600060208284031215610b9c57600080fd5b600082013567ffffffffffffffff811115610bb657600080fd5b610bc284828501610b37565b91505092915050565b6000610bd78383610d4d565b905092915050565b610be881611076565b82525050565b610bf781611076565b82525050565b6000610c0882610fbf565b610c128185610fe2565b935083602082028501610c2485610faf565b8060005b85811015610c605784840389528151610c418582610bcb565b9450610c4c83610fd5565b925060208a01995050600181019050610c28565b50829750879550505050505092915050565b6000610c7d82610fca565b610c878185610ffe565b9350610c978185602086016110c1565b610ca081611244565b840191505092915050565b6000610cb682610fca565b610cc0818561100f565b9350610cd08185602086016110c1565b610cd981611244565b840191505092915050565b6000610cf160278361100f565b9150610cfc82611255565b604082019050919050565b6000610d1460358361100f565b9150610d1f826112a4565b604082019050919050565b6000610d37600083610ff3565b9150610d42826112f3565b600082019050919050565b6000606083016000830151610d656000860182610bdf565b5060208301518482036020860152610d7d8282610c72565b9150506040830151610d926040860182610d9d565b508091505092915050565b610da6816110a8565b82525050565b610db5816110a8565b82525050565b6000610dc682610d2a565b9150819050919050565b60006020820190508181036000830152610dea8184610bfd565b905092915050565b60006020820190508181036000830152610e0c8184610cab565b905092915050565b60006040820190508181036000830152610e2e8185610cab565b9050610e3d6020830184610bee565b9392505050565b60006060820190508181036000830152610e5e8186610cab565b9050610e6d6020830185610bee565b610e7a6040830184610dac565b949350505050565b60006080820190508181036000830152610e9c8187610cab565b9050610eab6020830186610dac565b610eb86040830185610dac565b610ec56060830184610dac565b95945050505050565b60006020820190508181036000830152610ee781610ce4565b9050919050565b60006020820190508181036000830152610f0781610d07565b9050919050565b6000602082019050610f236000830184610dac565b92915050565b6000604082019050610f3e6000830185610dac565b8181036020830152610f508184610cab565b90509392505050565b6000610f63610f74565b9050610f6f8282611126565b919050565b6000604051905090565b600067ffffffffffffffff821115610f9957610f98611215565b5b610fa282611244565b9050602081019050919050565b6000819050602082019050919050565b600081519050919050565b600081519050919050565b6000602082019050919050565b600082825260208201905092915050565b600081905092915050565b600082825260208201905092915050565b600082825260208201905092915050565b600061102b826110a8565b9150611036836110a8565b9250827fffffffffffffffffffffffffffffffffffffffffffffffffffffffffffffffff0382111561106b5761106a611188565b5b828201905092915050565b600061108182611088565b9050919050565b600073ffffffffffffffffffffffffffffffffffffffff82169050919050565b6000819050919050565b82818337600083830152505050565b60005b838110156110df5780820151818401526020810190506110c4565b838111156110ee576000848401525b50505050565b6000600282049050600182168061110c57607f821691505b602082108114156111205761111f6111e6565b5b50919050565b61112f82611244565b810181811067ffffffffffffffff8211171561114e5761114d611215565b5b80604052505050565b6000611162826110a8565b915061116d836110a8565b92508261117d5761117c6111b7565b5b828206905092915050565b7f4e487b7100000000000000000000000000000000000000000000000000000000600052601160045260246000fd5b7f4e487b7100000000000000000000000000000000000000000000000000000000600052601260045260246000fd5b7f4e487b7100000000000000000000000000000000000000000000000000000000600052602260045260246000fd5b7f4e487b7100000000000000000000000000000000000000000000000000000000600052604160045260246000fd5b6000601f19601f8301169050919050565b7f4661696c656420746f207769746864726177206d6f6e65792066726f6d20636f60008201527f6e74726163742e00000000000000000000000000000000000000000000000000602082015250565b7f547279696e6720746f207769746864726177206d6f7265206d6f6e657920746860008201527f616e207468657920636f6e7472616374206861732e0000000000000000000000602082015250565b50565b6112ff81611076565b811461130a57600080fd5b5056fea2646970667358221220d35d78b1443b47e164a64e930c5eac4d42f94a94daf65ff5c0c7dfe7138efa8d64736f6c63430008040033",
    "linkReferences": {},
    "deployedLinkReferences": {}
}